{
  "contractName": "EtherSender",
  "abi": [
    {
      "inputs": [],
      "stateMutability": "nonpayable",
      "type": "constructor"
    },
    {
      "anonymous": false,
      "inputs": [
        {
          "indexed": false,
          "internalType": "bool",
          "name": "success",
          "type": "bool"
        },
        {
          "indexed": false,
          "internalType": "bytes",
          "name": "data",
          "type": "bytes"
        }
      ],
      "name": "Response",
      "type": "event"
    },
    {
      "inputs": [],
      "name": "balanceReceived",
      "outputs": [
        {
          "internalType": "uint256",
          "name": "",
          "type": "uint256"
        }
      ],
      "stateMutability": "view",
      "type": "function",
      "constant": true
    },
    {
      "inputs": [],
      "name": "owner",
      "outputs": [
        {
          "internalType": "address",
          "name": "",
          "type": "address"
        }
      ],
      "stateMutability": "view",
      "type": "function",
      "constant": true
    },
    {
      "inputs": [],
      "name": "receiveMoney",
      "outputs": [],
      "stateMutability": "payable",
      "type": "function",
      "payable": true
    },
    {
      "inputs": [],
      "name": "getBalance",
      "outputs": [
        {
          "internalType": "uint256",
          "name": "",
          "type": "uint256"
        }
      ],
      "stateMutability": "view",
      "type": "function",
      "constant": true
    },
    {
      "inputs": [
        {
          "internalType": "address payable",
          "name": "_to",
          "type": "address"
        }
      ],
      "name": "sendEthers",
      "outputs": [],
      "stateMutability": "payable",
      "type": "function",
      "payable": true
    },
    {
      "inputs": [],
      "name": "withdrawAll",
      "outputs": [],
      "stateMutability": "nonpayable",
      "type": "function"
    }
  ],
  "bytecode": "0x608060405234801561001057600080fd5b50336000806101000a81548173ffffffffffffffffffffffffffffffffffffffff021916908373ffffffffffffffffffffffffffffffffffffffff16021790555061082a806100606000396000f3fe6080604052600436106100555760003560e01c806312065fe01461005a57806352a90c42146100855780636d26ec18146100b0578063853828b6146100ba5780638549085e146100d15780638da5cb5b146100ed575b600080fd5b34801561006657600080fd5b5061006f610118565b60405161007c91906103e3565b60405180910390f35b34801561009157600080fd5b5061009a610120565b6040516100a791906103e3565b60405180910390f35b6100b8610126565b005b3480156100c657600080fd5b506100cf610141565b005b6100eb60048036038101906100e69190610461565b6102ba565b005b3480156100f957600080fd5b506101026103a6565b60405161010f91906104af565b60405180910390f35b600047905090565b60015481565b346001600082825461013891906104f9565b92505081905550565b60008054906101000a900473ffffffffffffffffffffffffffffffffffffffff1673ffffffffffffffffffffffffffffffffffffffff163373ffffffffffffffffffffffffffffffffffffffff16146101cf576040517f08c379a00000000000000000000000000000000000000000000000000000000081526004016101c6906105d2565b60405180910390fd5b6000803373ffffffffffffffffffffffffffffffffffffffff16476040516101f690610623565b60006040518083038185875af1925050503d8060008114610233576040519150601f19603f3d011682016040523d82523d6000602084013e610238565b606091505b50915091508161027d576040517f08c379a000000000000000000000000000000000000000000000000000000000815260040161027490610684565b60405180910390fd5b7f13848c3e38f8886f3f5d2ad9dff80d8092c2bbb8efd5b887a99c2c6cfc09ac2a82826040516102ae929190610758565b60405180910390a15050565b6000808273ffffffffffffffffffffffffffffffffffffffff16346040516102e190610623565b60006040518083038185875af1925050503d806000811461031e576040519150601f19603f3d011682016040523d82523d6000602084013e610323565b606091505b509150915081610368576040517f08c379a000000000000000000000000000000000000000000000000000000000815260040161035f906107d4565b60405180910390fd5b7f13848c3e38f8886f3f5d2ad9dff80d8092c2bbb8efd5b887a99c2c6cfc09ac2a8282604051610399929190610758565b60405180910390a1505050565b60008054906101000a900473ffffffffffffffffffffffffffffffffffffffff1681565b6000819050919050565b6103dd816103ca565b82525050565b60006020820190506103f860008301846103d4565b92915050565b600080fd5b600073ffffffffffffffffffffffffffffffffffffffff82169050919050565b600061042e82610403565b9050919050565b61043e81610423565b811461044957600080fd5b50565b60008135905061045b81610435565b92915050565b600060208284031215610477576104766103fe565b5b60006104858482850161044c565b91505092915050565b600061049982610403565b9050919050565b6104a98161048e565b82525050565b60006020820190506104c460008301846104a0565b92915050565b7f4e487b7100000000000000000000000000000000000000000000000000000000600052601160045260246000fd5b6000610504826103ca565b915061050f836103ca565b9250827fffffffffffffffffffffffffffffffffffffffffffffffffffffffffffffffff03821115610544576105436104ca565b5b828201905092915050565b600082825260208201905092915050565b7f4f776e61626c653a20596f7520617265206e6f7420746865206f776e65722c2060008201527f4279652e00000000000000000000000000000000000000000000000000000000602082015250565b60006105bc60248361054f565b91506105c782610560565b604082019050919050565b600060208201905081810360008301526105eb816105af565b9050919050565b600081905092915050565b50565b600061060d6000836105f2565b9150610618826105fd565b600082019050919050565b600061062e82610600565b9150819050919050565b7f4661696c656420746f2077697468647261772065746865720000000000000000600082015250565b600061066e60188361054f565b915061067982610638565b602082019050919050565b6000602082019050818103600083015261069d81610661565b9050919050565b60008115159050919050565b6106b9816106a4565b82525050565b600081519050919050565b600082825260208201905092915050565b60005b838110156106f95780820151818401526020810190506106de565b83811115610708576000848401525b50505050565b6000601f19601f8301169050919050565b600061072a826106bf565b61073481856106ca565b93506107448185602086016106db565b61074d8161070e565b840191505092915050565b600060408201905061076d60008301856106b0565b818103602083015261077f818461071f565b90509392505050565b7f4661696c656420746f2073656e64206574686572000000000000000000000000600082015250565b60006107be60148361054f565b91506107c982610788565b602082019050919050565b600060208201905081810360008301526107ed816107b1565b905091905056fea2646970667358221220d15b8dc1c9a9e1d6b1074a62ffd4a24c74435395b41cf16c8102ec2be0fc242f64736f6c634300080f0033",
  "immutableReferences": {},
  "source": "// SPDX-License-Identifier: MIT\npragma solidity ^0.8.13;\n\ncontract EtherSender {\n    address public owner;\n\n    modifier onlyOwner() {\n        require(msg.sender == owner, \"Ownable: You are not the owner, Bye.\");\n        _;\n    }\n\n    constructor() {\n        owner = msg.sender;\n    }\n\n    event Response(bool success, bytes data);\n\n    uint256 public balanceReceived;\n\n    function receiveMoney() public payable {\n        balanceReceived += msg.value;\n    }\n\n    function getBalance() public view returns (uint256) {\n        return address(this).balance;\n    }\n\n    function sendEthers(address payable _to) public payable {\n        (bool success, bytes memory data) = _to.call{value: msg.value}(\"\");\n        require(success, \"Failed to send ether\");\n        emit Response(success, data);\n    }\n\n    function withdrawAll() external onlyOwner {\n        (bool success, bytes memory data) = msg.sender.call{\n            value: address(this).balance\n        }(\"\");\n\n        require(success, \"Failed to withdraw ether\");\n        emit Response(success, data);\n    }\n}\n",
  "sourcePath": "/home/miguel/Desktop/dreambox-workspace/capacitacion/contracts/EtherSender.sol",
  "compiler": {
    "name": "solc",
    "version": "0.8.15+commit.e14f2714.Emscripten.clang"
  },
  "schemaVersion": "3.4.8",
  "updatedAt": "2022-11-17T19:33:41.610Z",
  "networkType": "ethereum",
  "devdoc": {
    "kind": "dev",
    "methods": {},
    "version": 1
  },
  "userdoc": {
    "kind": "user",
    "methods": {},
    "version": 1
  }
}